{
  "_format": "hh-sol-artifact-1",
  "contractName": "MyContract",
  "sourceName": "contracts/MyContracts.sol",
  "abi": [
    {
      "inputs": [
        {
          "internalType": "string",
          "name": "_name",
          "type": "string"
        }
      ],
      "stateMutability": "nonpayable",
      "type": "constructor"
    },
    {
      "inputs": [
        {
          "internalType": "bytes32",
          "name": "c__0xdb041d8b",
          "type": "bytes32"
        }
      ],
      "name": "c_0xdb041d8b",
      "outputs": [],
      "stateMutability": "pure",
      "type": "function"
    },
    {
      "inputs": [
        {
          "internalType": "string",
          "name": "_name",
          "type": "string"
        }
      ],
      "name": "changeName",
      "outputs": [],
      "stateMutability": "nonpayable",
      "type": "function"
    },
    {
      "inputs": [],
      "name": "getName",
      "outputs": [
        {
          "internalType": "string",
          "name": "",
          "type": "string"
        }
      ],
      "stateMutability": "view",
      "type": "function"
    },
    {
      "inputs": [],
      "name": "name",
      "outputs": [
        {
          "internalType": "string",
          "name": "",
          "type": "string"
        }
      ],
      "stateMutability": "view",
      "type": "function"
    }
  ],
  "bytecode": "0x60806040523480156200001157600080fd5b5060405162000afd38038062000afd833981810160405281019062000037919062000224565b6200006b7fed079460853432980dc6733e54e08137a73c54e24deaea35021de806c8b3887b60001b620000f360201b60201c565b6200009f7f0b46dd5818cd19304f90c68e10da386daa0c0729e8a319c0ca1af7d92f7dc17d60001b620000f360201b60201c565b620000d37f570367e6769d7d38e031399d3412a82647a4a6b63d8e7a844ede15ef65e3dcc960001b620000f360201b60201c565b8060009080519060200190620000eb929190620000f6565b5050620003f9565b50565b82805462000104906200030a565b90600052602060002090601f01602090048101928262000128576000855562000174565b82601f106200014357805160ff191683800117855562000174565b8280016001018555821562000174579182015b828111156200017357825182559160200191906001019062000156565b5b50905062000183919062000187565b5090565b5b80821115620001a257600081600090555060010162000188565b5090565b6000620001bd620001b7846200029e565b62000275565b905082815260208101848484011115620001dc57620001db620003d9565b5b620001e9848285620002d4565b509392505050565b600082601f830112620002095762000208620003d4565b5b81516200021b848260208601620001a6565b91505092915050565b6000602082840312156200023d576200023c620003e3565b5b600082015167ffffffffffffffff8111156200025e576200025d620003de565b5b6200026c84828501620001f1565b91505092915050565b60006200028162000294565b90506200028f828262000340565b919050565b6000604051905090565b600067ffffffffffffffff821115620002bc57620002bb620003a5565b5b620002c782620003e8565b9050602081019050919050565b60005b83811015620002f4578082015181840152602081019050620002d7565b8381111562000304576000848401525b50505050565b600060028204905060018216806200032357607f821691505b602082108114156200033a576200033962000376565b5b50919050565b6200034b82620003e8565b810181811067ffffffffffffffff821117156200036d576200036c620003a5565b5b80604052505050565b7f4e487b7100000000000000000000000000000000000000000000000000000000600052602260045260246000fd5b7f4e487b7100000000000000000000000000000000000000000000000000000000600052604160045260246000fd5b600080fd5b600080fd5b600080fd5b600080fd5b6000601f19601f8301169050919050565b6106f480620004096000396000f3fe608060405234801561001057600080fd5b506004361061004c5760003560e01c806306fdde031461005157806317d7de7c1461006f5780635353a2d81461008d5780637857f41e146100a9575b600080fd5b6100596100c5565b60405161006691906104e1565b60405180910390f35b610077610153565b60405161008491906104e1565b60405180910390f35b6100a760048036038101906100a2919061045f565b610269565b005b6100c360048036038101906100be9190610432565b610307565b005b600080546100d2906105c1565b80601f01602080910402602001604051908101604052809291908181526020018280546100fe906105c1565b801561014b5780601f106101205761010080835404028352916020019161014b565b820191906000526020600020905b81548152906001019060200180831161012e57829003601f168201915b505050505081565b60606101817fdc4e698a226ac0bff696f52bb9de071e8ea2f65fe2bb5f231a426dc7f36ee9a160001b610307565b6101ad7f0328fce2d5ea2b97b07599671b73cc9f4be0059999d20ab7350a9d25d88811da60001b610307565b6101d97fd2680e149b30f9d834e96b1c4ef56a79b840d806c93515627f52c495de76dc7760001b610307565b600080546101e6906105c1565b80601f0160208091040260200160405190810160405280929190818152602001828054610212906105c1565b801561025f5780601f106102345761010080835404028352916020019161025f565b820191906000526020600020905b81548152906001019060200180831161024257829003601f168201915b5050505050905090565b6102957f5a1feebcfcd0bcff4b54fd29c5512fea737d96ec41970a2119144d44056bbc3b60001b610307565b6102c17fc68719536be20d2985a5a5c87b8471721aee2068d3ba3573e9a790e62aa9744860001b610307565b6102ed7fd2fbdadfdb4ddd10a59a77b84e4e879e2588674bc687d898313c54ab7b265cca60001b610307565b806000908051906020019061030392919061030a565b5050565b50565b828054610316906105c1565b90600052602060002090601f016020900481019282610338576000855561037f565b82601f1061035157805160ff191683800117855561037f565b8280016001018555821561037f579182015b8281111561037e578251825591602001919060010190610363565b5b50905061038c9190610390565b5090565b5b808211156103a9576000816000905550600101610391565b5090565b60006103c06103bb84610528565b610503565b9050828152602081018484840111156103dc576103db610687565b5b6103e784828561057f565b509392505050565b6000813590506103fe816106a7565b92915050565b600082601f83011261041957610418610682565b5b81356104298482602086016103ad565b91505092915050565b60006020828403121561044857610447610691565b5b6000610456848285016103ef565b91505092915050565b60006020828403121561047557610474610691565b5b600082013567ffffffffffffffff8111156104935761049261068c565b5b61049f84828501610404565b91505092915050565b60006104b382610559565b6104bd8185610564565b93506104cd81856020860161058e565b6104d681610696565b840191505092915050565b600060208201905081810360008301526104fb81846104a8565b905092915050565b600061050d61051e565b905061051982826105f3565b919050565b6000604051905090565b600067ffffffffffffffff82111561054357610542610653565b5b61054c82610696565b9050602081019050919050565b600081519050919050565b600082825260208201905092915050565b6000819050919050565b82818337600083830152505050565b60005b838110156105ac578082015181840152602081019050610591565b838111156105bb576000848401525b50505050565b600060028204905060018216806105d957607f821691505b602082108114156105ed576105ec610624565b5b50919050565b6105fc82610696565b810181811067ffffffffffffffff8211171561061b5761061a610653565b5b80604052505050565b7f4e487b7100000000000000000000000000000000000000000000000000000000600052602260045260246000fd5b7f4e487b7100000000000000000000000000000000000000000000000000000000600052604160045260246000fd5b600080fd5b600080fd5b600080fd5b600080fd5b6000601f19601f8301169050919050565b6106b081610575565b81146106bb57600080fd5b5056fea26469706673582212208235563b70b42f351b89d9e079d6f61f6eb7bd59559e635135c6e9060a2aedda64736f6c63430008050033",
  "linkReferences": {},
  "deployedLinkReferences": {}
}